:10000000C2A0C2A1E590B40F00D2A0D2A1E590B4E5
:100010000F0280F5E590B40E06D2A0C2A180F5E5EE
:1000200090B40C06D2A0C2A180F5E590B40D06D222
:10003000A0C2A180F5E590B40306D2A1C2A080F5CC
:10004000E590B40709D2A1C2A080F5020000E590B6
:10005000B40B06D2A1C2A080F5E590B40306D2A1EC
:10006000C2A080F5E590B40006D2A1D2A080F5E54B
:1000700090B40106D2A1C2A080F5E590B40206D2E8
:10008000A1C2A080F5E590B40406D2A0C2A180F57B
:0B009000E590B408B6D2A0C2A180F534
:00000001FF
